{
  "_format": "hh-sol-artifact-1",
  "contractName": "MysteryDropEvent",
  "sourceName": "contracts/MysteryDropEvent.sol",
  "abi": [
    {
      "inputs": [
        {
          "internalType": "string",
          "name": "name",
          "type": "string"
        },
        {
          "internalType": "string",
          "name": "symbol",
          "type": "string"
        },
        {
          "internalType": "string",
          "name": "unrevealedURI",
          "type": "string"
        },
        {
          "internalType": "address",
          "name": "premiumNFT",
          "type": "address"
        },
        {
          "internalType": "uint64",
          "name": "_nftPurchasedRequired",
          "type": "uint64"
        },
        {
          "internalType": "uint256",
          "name": "maxSupply",
          "type": "uint256"
        },
        {
          "internalType": "string",
          "name": "baseURI",
          "type": "string"
        },
        {
          "internalType": "uint64",
          "name": "clSubscriptionId",
          "type": "uint64"
        }
      ],
      "stateMutability": "nonpayable",
      "type": "constructor"
    },
    {
      "inputs": [],
      "name": "EmptyArgs",
      "type": "error"
    },
    {
      "inputs": [],
      "name": "EmptySource",
      "type": "error"
    },
    {
      "inputs": [],
      "name": "LimitPerUserExceeded",
      "type": "error"
    },
    {
      "inputs": [],
      "name": "NoInlineSecrets",
      "type": "error"
    },
    {
      "inputs": [],
      "name": "NotAllowed",
      "type": "error"
    },
    {
      "inputs": [
        {
          "internalType": "address",
          "name": "have",
          "type": "address"
        },
        {
          "internalType": "address",
          "name": "want",
          "type": "address"
        }
      ],
      "name": "OnlyCoordinatorCanFulfill",
      "type": "error"
    },
    {
      "inputs": [],
      "name": "OnlyRouterCanFulfill",
      "type": "error"
    },
    {
      "inputs": [
        {
          "internalType": "bytes32",
          "name": "requestId",
          "type": "bytes32"
        }
      ],
      "name": "UnexpectedRequestID",
      "type": "error"
    },
    {
      "anonymous": false,
      "inputs": [
        {
          "indexed": true,
          "internalType": "address",
          "name": "owner",
          "type": "address"
        },
        {
          "indexed": true,
          "internalType": "address",
          "name": "approved",
          "type": "address"
        },
        {
          "indexed": true,
          "internalType": "uint256",
          "name": "tokenId",
          "type": "uint256"
        }
      ],
      "name": "Approval",
      "type": "event"
    },
    {
      "anonymous": false,
      "inputs": [
        {
          "indexed": true,
          "internalType": "address",
          "name": "owner",
          "type": "address"
        },
        {
          "indexed": true,
          "internalType": "address",
          "name": "operator",
          "type": "address"
        },
        {
          "indexed": false,
          "internalType": "bool",
          "name": "approved",
          "type": "bool"
        }
      ],
      "name": "ApprovalForAll",
      "type": "event"
    },
    {
      "anonymous": false,
      "inputs": [
        {
          "indexed": false,
          "internalType": "address",
          "name": "subscriber",
          "type": "address"
        },
        {
          "indexed": false,
          "internalType": "bytes32",
          "name": "requestId",
          "type": "bytes32"
        }
      ],
      "name": "MysteryNFTRequest",
      "type": "event"
    },
    {
      "anonymous": false,
      "inputs": [
        {
          "indexed": true,
          "internalType": "address",
          "name": "from",
          "type": "address"
        },
        {
          "indexed": true,
          "internalType": "address",
          "name": "to",
          "type": "address"
        }
      ],
      "name": "OwnershipTransferRequested",
      "type": "event"
    },
    {
      "anonymous": false,
      "inputs": [
        {
          "indexed": true,
          "internalType": "address",
          "name": "from",
          "type": "address"
        },
        {
          "indexed": true,
          "internalType": "address",
          "name": "to",
          "type": "address"
        }
      ],
      "name": "OwnershipTransferred",
      "type": "event"
    },
    {
      "anonymous": false,
      "inputs": [
        {
          "indexed": false,
          "internalType": "uint256",
          "name": "requestId",
          "type": "uint256"
        }
      ],
      "name": "RandomnessRequest",
      "type": "event"
    },
    {
      "anonymous": false,
      "inputs": [
        {
          "indexed": true,
          "internalType": "bytes32",
          "name": "id",
          "type": "bytes32"
        }
      ],
      "name": "RequestFulfilled",
      "type": "event"
    },
    {
      "anonymous": false,
      "inputs": [
        {
          "indexed": true,
          "internalType": "bytes32",
          "name": "id",
          "type": "bytes32"
        }
      ],
      "name": "RequestSent",
      "type": "event"
    },
    {
      "anonymous": false,
      "inputs": [
        {
          "indexed": true,
          "internalType": "bytes32",
          "name": "requestId",
          "type": "bytes32"
        },
        {
          "indexed": false,
          "internalType": "bytes",
          "name": "response",
          "type": "bytes"
        },
        {
          "indexed": false,
          "internalType": "bytes",
          "name": "err",
          "type": "bytes"
        }
      ],
      "name": "Response",
      "type": "event"
    },
    {
      "anonymous": false,
      "inputs": [
        {
          "indexed": true,
          "internalType": "address",
          "name": "from",
          "type": "address"
        },
        {
          "indexed": true,
          "internalType": "address",
          "name": "to",
          "type": "address"
        },
        {
          "indexed": true,
          "internalType": "uint256",
          "name": "tokenId",
          "type": "uint256"
        }
      ],
      "name": "Transfer",
      "type": "event"
    },
    {
      "inputs": [],
      "name": "acceptOwnership",
      "outputs": [],
      "stateMutability": "nonpayable",
      "type": "function"
    },
    {
      "inputs": [
        {
          "internalType": "address",
          "name": "to",
          "type": "address"
        },
        {
          "internalType": "uint256",
          "name": "tokenId",
          "type": "uint256"
        }
      ],
      "name": "approve",
      "outputs": [],
      "stateMutability": "nonpayable",
      "type": "function"
    },
    {
      "inputs": [
        {
          "internalType": "address",
          "name": "owner",
          "type": "address"
        }
      ],
      "name": "balanceOf",
      "outputs": [
        {
          "internalType": "uint256",
          "name": "",
          "type": "uint256"
        }
      ],
      "stateMutability": "view",
      "type": "function"
    },
    {
      "inputs": [
        {
          "internalType": "bytes",
          "name": "data",
          "type": "bytes"
        }
      ],
      "name": "bytesToUint",
      "outputs": [
        {
          "internalType": "uint256",
          "name": "",
          "type": "uint256"
        }
      ],
      "stateMutability": "pure",
      "type": "function"
    },
    {
      "inputs": [
        {
          "internalType": "uint256",
          "name": "tokenId",
          "type": "uint256"
        }
      ],
      "name": "getApproved",
      "outputs": [
        {
          "internalType": "address",
          "name": "",
          "type": "address"
        }
      ],
      "stateMutability": "view",
      "type": "function"
    },
    {
      "inputs": [],
      "name": "getBaseURI",
      "outputs": [
        {
          "internalType": "string",
          "name": "",
          "type": "string"
        }
      ],
      "stateMutability": "view",
      "type": "function"
    },
    {
      "inputs": [],
      "name": "getProvenanceHash",
      "outputs": [
        {
          "internalType": "string",
          "name": "",
          "type": "string"
        }
      ],
      "stateMutability": "view",
      "type": "function"
    },
    {
      "inputs": [
        {
          "internalType": "bytes32",
          "name": "requestId",
          "type": "bytes32"
        },
        {
          "internalType": "bytes",
          "name": "response",
          "type": "bytes"
        },
        {
          "internalType": "bytes",
          "name": "err",
          "type": "bytes"
        }
      ],
      "name": "handleOracleFulfillment",
      "outputs": [],
      "stateMutability": "nonpayable",
      "type": "function"
    },
    {
      "inputs": [],
      "name": "i_CLSubscriptionId",
      "outputs": [
        {
          "internalType": "uint64",
          "name": "",
          "type": "uint64"
        }
      ],
      "stateMutability": "view",
      "type": "function"
    },
    {
      "inputs": [],
      "name": "i_maxSupply",
      "outputs": [
        {
          "internalType": "uint256",
          "name": "",
          "type": "uint256"
        }
      ],
      "stateMutability": "view",
      "type": "function"
    },
    {
      "inputs": [
        {
          "internalType": "address",
          "name": "owner",
          "type": "address"
        },
        {
          "internalType": "address",
          "name": "operator",
          "type": "address"
        }
      ],
      "name": "isApprovedForAll",
      "outputs": [
        {
          "internalType": "bool",
          "name": "",
          "type": "bool"
        }
      ],
      "stateMutability": "view",
      "type": "function"
    },
    {
      "inputs": [],
      "name": "name",
      "outputs": [
        {
          "internalType": "string",
          "name": "",
          "type": "string"
        }
      ],
      "stateMutability": "view",
      "type": "function"
    },
    {
      "inputs": [],
      "name": "nftPurchasedRequired",
      "outputs": [
        {
          "internalType": "uint64",
          "name": "",
          "type": "uint64"
        }
      ],
      "stateMutability": "view",
      "type": "function"
    },
    {
      "inputs": [],
      "name": "owner",
      "outputs": [
        {
          "internalType": "address",
          "name": "",
          "type": "address"
        }
      ],
      "stateMutability": "view",
      "type": "function"
    },
    {
      "inputs": [
        {
          "internalType": "uint256",
          "name": "tokenId",
          "type": "uint256"
        }
      ],
      "name": "ownerOf",
      "outputs": [
        {
          "internalType": "address",
          "name": "",
          "type": "address"
        }
      ],
      "stateMutability": "view",
      "type": "function"
    },
    {
      "inputs": [
        {
          "internalType": "uint256",
          "name": "requestId",
          "type": "uint256"
        },
        {
          "internalType": "uint256[]",
          "name": "randomWords",
          "type": "uint256[]"
        }
      ],
      "name": "rawFulfillRandomWords",
      "outputs": [],
      "stateMutability": "nonpayable",
      "type": "function"
    },
    {
      "inputs": [],
      "name": "reveal",
      "outputs": [],
      "stateMutability": "nonpayable",
      "type": "function"
    },
    {
      "inputs": [],
      "name": "s_baseURI",
      "outputs": [
        {
          "internalType": "string",
          "name": "",
          "type": "string"
        }
      ],
      "stateMutability": "view",
      "type": "function"
    },
    {
      "inputs": [],
      "name": "s_lastError",
      "outputs": [
        {
          "internalType": "bytes",
          "name": "",
          "type": "bytes"
        }
      ],
      "stateMutability": "view",
      "type": "function"
    },
    {
      "inputs": [],
      "name": "s_lastRequestId",
      "outputs": [
        {
          "internalType": "bytes32",
          "name": "",
          "type": "bytes32"
        }
      ],
      "stateMutability": "view",
      "type": "function"
    },
    {
      "inputs": [
        {
          "internalType": "bytes32",
          "name": "",
          "type": "bytes32"
        }
      ],
      "name": "s_requestIdToSubscriber",
      "outputs": [
        {
          "internalType": "address",
          "name": "",
          "type": "address"
        }
      ],
      "stateMutability": "view",
      "type": "function"
    },
    {
      "inputs": [
        {
          "internalType": "address",
          "name": "",
          "type": "address"
        }
      ],
      "name": "s_subscriberToRequestId",
      "outputs": [
        {
          "internalType": "bytes32",
          "name": "",
          "type": "bytes32"
        }
      ],
      "stateMutability": "view",
      "type": "function"
    },
    {
      "inputs": [
        {
          "internalType": "address",
          "name": "",
          "type": "address"
        }
      ],
      "name": "s_subscriberToResponse",
      "outputs": [
        {
          "internalType": "uint256",
          "name": "",
          "type": "uint256"
        }
      ],
      "stateMutability": "view",
      "type": "function"
    },
    {
      "inputs": [
        {
          "internalType": "address",
          "name": "from",
          "type": "address"
        },
        {
          "internalType": "address",
          "name": "to",
          "type": "address"
        },
        {
          "internalType": "uint256",
          "name": "tokenId",
          "type": "uint256"
        }
      ],
      "name": "safeTransferFrom",
      "outputs": [],
      "stateMutability": "nonpayable",
      "type": "function"
    },
    {
      "inputs": [
        {
          "internalType": "address",
          "name": "from",
          "type": "address"
        },
        {
          "internalType": "address",
          "name": "to",
          "type": "address"
        },
        {
          "internalType": "uint256",
          "name": "tokenId",
          "type": "uint256"
        },
        {
          "internalType": "bytes",
          "name": "_data",
          "type": "bytes"
        }
      ],
      "name": "safeTransferFrom",
      "outputs": [],
      "stateMutability": "nonpayable",
      "type": "function"
    },
    {
      "inputs": [
        {
          "internalType": "string[]",
          "name": "args",
          "type": "string[]"
        }
      ],
      "name": "sendRequest",
      "outputs": [
        {
          "internalType": "bytes32",
          "name": "requestId",
          "type": "bytes32"
        }
      ],
      "stateMutability": "nonpayable",
      "type": "function"
    },
    {
      "inputs": [
        {
          "internalType": "address",
          "name": "operator",
          "type": "address"
        },
        {
          "internalType": "bool",
          "name": "approved",
          "type": "bool"
        }
      ],
      "name": "setApprovalForAll",
      "outputs": [],
      "stateMutability": "nonpayable",
      "type": "function"
    },
    {
      "inputs": [
        {
          "internalType": "bytes4",
          "name": "interfaceId",
          "type": "bytes4"
        }
      ],
      "name": "supportsInterface",
      "outputs": [
        {
          "internalType": "bool",
          "name": "",
          "type": "bool"
        }
      ],
      "stateMutability": "view",
      "type": "function"
    },
    {
      "inputs": [],
      "name": "symbol",
      "outputs": [
        {
          "internalType": "string",
          "name": "",
          "type": "string"
        }
      ],
      "stateMutability": "view",
      "type": "function"
    },
    {
      "inputs": [
        {
          "internalType": "uint256",
          "name": "tokenId",
          "type": "uint256"
        }
      ],
      "name": "tokenURI",
      "outputs": [
        {
          "internalType": "string",
          "name": "",
          "type": "string"
        }
      ],
      "stateMutability": "view",
      "type": "function"
    },
    {
      "inputs": [
        {
          "internalType": "address",
          "name": "owner",
          "type": "address"
        }
      ],
      "name": "tokensOfOwner",
      "outputs": [
        {
          "internalType": "uint256[]",
          "name": "",
          "type": "uint256[]"
        }
      ],
      "stateMutability": "view",
      "type": "function"
    },
    {
      "inputs": [],
      "name": "totalSupply",
      "outputs": [
        {
          "internalType": "uint256",
          "name": "",
          "type": "uint256"
        }
      ],
      "stateMutability": "view",
      "type": "function"
    },
    {
      "inputs": [
        {
          "internalType": "address",
          "name": "from",
          "type": "address"
        },
        {
          "internalType": "address",
          "name": "to",
          "type": "address"
        },
        {
          "internalType": "uint256",
          "name": "tokenId",
          "type": "uint256"
        }
      ],
      "name": "transferFrom",
      "outputs": [],
      "stateMutability": "nonpayable",
      "type": "function"
    },
    {
      "inputs": [
        {
          "internalType": "address",
          "name": "to",
          "type": "address"
        }
      ],
      "name": "transferOwnership",
      "outputs": [],
      "stateMutability": "nonpayable",
      "type": "function"
    }
  ],
  "bytecode": "0x600c805463ffffffff1916620493e01790557f66756e2d6176616c616e6368652d66756a692d31000000000000000000000000600d556103606040526101cd6101608181529062003fa1610180396016906200005c908262000412565b503480156200006a57600080fd5b506040516200416e3803806200416e8339810160408190526200008d91620005c2565b732ed832ba664535e5886b75d64c46eb9a228c2610608081905273a9d587a00a31a52ed70d6026794a8fc5e2f5dcb090339081906000908c8c6001620000d4838262000412565b506002620000e3828262000412565b5060006004555050506001600160a01b038216620001485760405162461bcd60e51b815260206004820152601860248201527f43616e6e6f7420736574206f776e657220746f207a65726f000000000000000060448201526064015b60405180910390fd5b600880546001600160a01b0319166001600160a01b03848116919091179091558116156200017b576200017b816200024b565b5050506001600160a01b031660a0526101408390527f354d2f95da55398f44b7cff77da56283d9c6c829a4bdf1bbcaf2ad6a4d081f6160e0526013620001c2878262000412565b506001600160401b0381811660c052732ed832ba664535e5886b75d64c46eb9a228c26106101005261032e61012052600f80546001600160401b031916918616919091179055600e62000216838262000412565b50601580546001600160a01b0319166001600160a01b0387161790556200023d32620002f7565b5050505050505050620006bd565b336001600160a01b03821603620002a55760405162461bcd60e51b815260206004820152601760248201527f43616e6e6f74207472616e7366657220746f2073656c6600000000000000000060448201526064016200013f565b600980546001600160a01b0319166001600160a01b03838116918217909255600854604051919216907fed8889f560326eb138920d842192f0eb3dd22b4f139c87a2c57538e05bae127890600090a350565b620003016200030f565b6200030c816200024b565b50565b6008546001600160a01b031633146200036b5760405162461bcd60e51b815260206004820152601660248201527f4f6e6c792063616c6c61626c65206279206f776e65720000000000000000000060448201526064016200013f565b565b634e487b7160e01b600052604160045260246000fd5b600181811c908216806200039857607f821691505b602082108103620003b957634e487b7160e01b600052602260045260246000fd5b50919050565b601f8211156200040d57600081815260208120601f850160051c81016020861015620003e85750805b601f850160051c820191505b818110156200040957828155600101620003f4565b5050505b505050565b81516001600160401b038111156200042e576200042e6200036d565b62000446816200043f845462000383565b84620003bf565b602080601f8311600181146200047e5760008415620004655750858301515b600019600386901b1c1916600185901b17855562000409565b600085815260208120601f198616915b82811015620004af578886015182559484019460019091019084016200048e565b5085821015620004ce5787850151600019600388901b60f8161c191681555b5050505050600190811b01905550565b600082601f830112620004f057600080fd5b81516001600160401b03808211156200050d576200050d6200036d565b604051601f8301601f19908116603f011681019082821181831017156200053857620005386200036d565b816040528381526020925086838588010111156200055557600080fd5b600091505b838210156200057957858201830151818301840152908201906200055a565b600093810190920192909252949350505050565b80516001600160a01b0381168114620005a557600080fd5b919050565b80516001600160401b0381168114620005a557600080fd5b600080600080600080600080610100898b031215620005e057600080fd5b88516001600160401b0380821115620005f857600080fd5b620006068c838d01620004de565b995060208b01519150808211156200061d57600080fd5b6200062b8c838d01620004de565b985060408b01519150808211156200064257600080fd5b620006508c838d01620004de565b97506200066060608c016200058d565b96506200067060808c01620005aa565b955060a08b0151945060c08b01519150808211156200068e57600080fd5b506200069d8b828c01620004de565b925050620006ae60e08a01620005aa565b90509295985092959890939650565b60805160a05160c05160e0516101005161012051610140516138666200073b600039600081816103cd015281816111d8015261212e01526000611d2601526000611cd601526000611d050152600081816102c90152610cab0152600081816108230152611ad10152600081816108b601526108f801526138666000f3fe608060405234801561001057600080fd5b50600436106102065760003560e01c8063646cfb6f1161011a57806394b3fbc2116100ad578063b1e217491161007c578063b1e2174914610496578063b88d4fde1461049f578063c87b56dd146104b2578063e985e9c5146104c5578063f2fde38b1461050157600080fd5b806394b3fbc21461046b57806395d89b4114610473578063a22cb4651461047b578063a475b5dd1461048e57600080fd5b806379ba5097116100e957806379ba5097146104125780638462151c1461041a5780638da5cb5b1461043a5780638eb58bdd1461044b57600080fd5b8063646cfb6f146103c857806365935e1b146103ef57806370a08231146103f7578063714c53981461040a57600080fd5b80631fe543e31161019d57806342842e0e1161016c57806342842e0e146103675780634b0795a81461037a5780634c8f60a31461038257806351e3d93e146103955780636352211e146103b557600080fd5b80631fe543e31461030457806323b872dd146103175780632510551a1461032a578063272af3d91461033e57600080fd5b8063095ea7b3116101d9578063095ea7b3146102945780630ca76175146102a957806318160ddd146102bc5780631b399baa146102c457600080fd5b806301ffc9a71461020b57806302d06d051461023357806306fdde0314610254578063081812fc14610269575b600080fd5b61021e610219366004612d52565b610514565b60405190151581526020015b60405180910390f35b610246610241366004612e2e565b610566565b60405190815260200161022a565b61025c6105c6565b60405161022a9190612eb3565b61027c610277366004612ec6565b610658565b6040516001600160a01b03909116815260200161022a565b6102a76102a2366004612efb565b6106e3565b005b6102a76102b7366004612f25565b610818565b61024661089c565b6102eb7f000000000000000000000000000000000000000000000000000000000000000081565b60405167ffffffffffffffff909116815260200161022a565b6102a7610312366004612fb6565b6108ab565b6102a7610325366004613058565b610933565b600f546102eb9067ffffffffffffffff1681565b61027c61034c366004612ec6565b6011602052600090815260409020546001600160a01b031681565b6102a7610375366004613058565b6109b1565b61025c6109cc565b610246610390366004613094565b610a5a565b6102466103a336600461315a565b60126020526000908152604090205481565b61027c6103c3366004612ec6565b610d4f565b6102467f000000000000000000000000000000000000000000000000000000000000000081565b61025c610d63565b61024661040536600461315a565b610d70565b61025c610e3e565b6102a7610e4d565b61042d61042836600461315a565b610f02565b60405161022a9190613175565b6008546001600160a01b031661027c565b61024661045936600461315a565b60106020526000908152604090205481565b61025c610fc9565b61025c610fd8565b6102a76104893660046131b9565b610fe7565b6102a76110ab565b610246600a5481565b6102a76104ad3660046131f5565b6110bd565b61025c6104c0366004612ec6565b611142565b61021e6104d336600461325d565b6001600160a01b03918216600090815260066020908152604080832093909416825291909152205460ff1690565b6102a761050f36600461315a565b61126f565b60006001600160e01b031982166380ac58cd60e01b148061054557506001600160e01b03198216635b5e139f60e01b145b8061056057506301ffc9a760e01b6001600160e01b03198316145b92915050565b600081516020146105be5760405162461bcd60e51b815260206004820152601360248201527f496e76616c69642064617461206c656e6774680000000000000000000000000060448201526064015b60405180910390fd5b506020015190565b6060600180546105d590613290565b80601f016020809104026020016040519081016040528092919081815260200182805461060190613290565b801561064e5780601f106106235761010080835404028352916020019161064e565b820191906000526020600020905b81548152906001019060200180831161063157829003601f168201915b5050505050905090565b600061066382611283565b6106c75760405162461bcd60e51b815260206004820152602f60248201527f4552433732315073693a20617070726f76656420717565727920666f72206e6f60448201526e3732bc34b9ba32b73a103a37b5b2b760891b60648201526084016105b5565b506000908152600560205260409020546001600160a01b031690565b60006106ee82610d4f565b9050806001600160a01b0316836001600160a01b03160361075d5760405162461bcd60e51b8152602060048201526024808201527f4552433732315073693a20617070726f76616c20746f2063757272656e74206f6044820152633bb732b960e11b60648201526084016105b5565b336001600160a01b038216148061079757506001600160a01b038116600090815260066020908152604080832033845290915290205460ff165b6108095760405162461bcd60e51b815260206004820152603b60248201527f4552433732315073693a20617070726f76652063616c6c6572206973206e6f7460448201527f206f776e6572206e6f7220617070726f76656420666f7220616c6c000000000060648201526084016105b5565b610813838361129f565b505050565b336001600160a01b037f000000000000000000000000000000000000000000000000000000000000000016146108615760405163c6829f8360e01b815260040160405180910390fd5b61086c83838361130d565b60405183907f85e1543bf2f84fe80c6badbce3648c8539ad1df4d2b3d822938ca0538be727e690600090a2505050565b60006108a6611426565b905090565b336001600160a01b037f000000000000000000000000000000000000000000000000000000000000000016146109255760405163073e64fd60e21b81523360048201526001600160a01b037f00000000000000000000000000000000000000000000000000000000000000001660248201526044016105b5565b61092f8282611436565b5050565b61093d338261149e565b6109a65760405162461bcd60e51b815260206004820152603460248201527f4552433732315073693a207472616e736665722063616c6c6572206973206e6f6044820152731d081bdddb995c881b9bdc88185c1c1c9bdd995960621b60648201526084016105b5565b610813838383611587565b610813838383604051806020016040528060008152506110bd565b600b80546109d990613290565b80601f0160208091040260200160405190810160405280929190818152602001828054610a0590613290565b8015610a525780601f10610a2757610100808354040283529160200191610a52565b820191906000526020600020905b815481529060010190602001808311610a3557829003601f168201915b505050505081565b6015546040516370a0823160e01b815233600482015260009182916001600160a01b03909116906370a0823190602401602060405180830381865afa158015610aa7573d6000803e3d6000fd5b505050506040513d601f19601f82011682018060405250810190610acb91906132ca565b11610b245760405162461bcd60e51b8152602060048201526024808201527f53656e64657220686176656e2774207375627363726962656420746f2063726560448201526330ba37b960e11b60648201526084016105b5565b336000908152601060205260408120549003610ba85760405162461bcd60e51b815260206004820152603260248201527f5468652053756273637269626572277320616c7265616479207265717565737460448201527f6564204d797374657279206d696e74696e67000000000000000000000000000060648201526084016105b5565b610be96040805160e0810190915280600081526020016000815260200160008152602001606081526020016060815260200160608152602001606081525090565b610c8660168054610bf990613290565b80601f0160208091040260200160405190810160405280929190818152602001828054610c2590613290565b8015610c725780601f10610c4757610100808354040283529160200191610c72565b820191906000526020600020905b815481529060010190602001808311610c5557829003601f168201915b5050505050826117af90919063ffffffff16565b825115610c9757610c9781846117bc565b610cd7610ca3826117e6565b600c54600d547f00000000000000000000000000000000000000000000000000000000000000009163ffffffff1690611acc565b600a818155336000818152601060209081526040808320869055948252601181529084902080546001600160a01b0319168317905591548351918252918101919091527f8442575db7224b186ef7d856bd1822a9d6ed79327ef07330d8334e23c0e1379a910160405180910390a15050600a54919050565b600080610d5b83611b9e565b509392505050565b600e80546109d990613290565b60006001600160a01b038216610dde5760405162461bcd60e51b815260206004820152602d60248201527f4552433732315073693a2062616c616e636520717565727920666f722074686560448201526c207a65726f206164647265737360981b60648201526084016105b5565b6000805b600454811015610e3757610df581611283565b15610e2757610e0381610d4f565b6001600160a01b0316846001600160a01b031603610e2757610e24826132f9565b91505b610e30816132f9565b9050610de2565b5092915050565b6060600e80546105d590613290565b6009546001600160a01b03163314610ea75760405162461bcd60e51b815260206004820152601660248201527f4d7573742062652070726f706f736564206f776e65720000000000000000000060448201526064016105b5565b600880546001600160a01b0319808216339081179093556009805490911690556040516001600160a01b03909116919082907f8be0079c531659141344cd1fd0a4f28419497f9722a3daafe3b4186f6b6457e090600090a350565b6060600080610f1084610d70565b905060008167ffffffffffffffff811115610f2d57610f2d612d6f565b604051908082528060200260200182016040528015610f56578160200160208202803683370190505b50905060005b828414610fc057610f6c81611283565b15610fb857856001600160a01b0316610f8482610d4f565b6001600160a01b031603610fb85780828580600101965081518110610fab57610fab613312565b6020026020010181815250505b600101610f5c565b50949350505050565b6060601480546105d590613290565b6060600280546105d590613290565b336001600160a01b0383160361103f5760405162461bcd60e51b815260206004820152601c60248201527f4552433732315073693a20617070726f766520746f2063616c6c65720000000060448201526064016105b5565b3360008181526006602090815260408083206001600160a01b03871680855290835292819020805460ff191686151590811790915590519081529192917f17307eab39ab6107e8899845ad3d59bd9653f200f220920489ca2b5937696c31910160405180910390a35050565b6110b3611c35565b6110bb611c8f565b565b6110c7338361149e565b6111305760405162461bcd60e51b815260206004820152603460248201527f4552433732315073693a207472616e736665722063616c6c6572206973206e6f6044820152731d081bdddb995c881b9bdc88185c1c1c9bdd995960621b60648201526084016105b5565b61113c84848484611e11565b50505050565b606061114d82611283565b6111ac5760405162461bcd60e51b815260206004820152602a60248201527f4552433732315073693a2055524920717565727920666f72206e6f6e657869736044820152693a32b73a103a37b5b2b760b11b60648201526084016105b5565b6007546000036111be57610560611e94565b60006111c8610e3e565b905060006111ff846007546111fa7f000000000000000000000000000000000000000000000000000000000000000090565b611ea3565b9050600082511161121f5760405180602001604052806000815250611267565b8161122982611f2f565b604080518082019091526005815264173539b7b760d91b602082015260405160200161125793929190613328565b6040516020818303038152906040525b949350505050565b611277611c35565b61128081612048565b50565b600061128e60045490565b821080156105605750600192915050565b600081815260056020526040902080546001600160a01b0319166001600160a01b03841690811790915581906112d482610d4f565b6001600160a01b03167f8c5be1e5ebec7d5bd14f71427d1e84f3dd0314c0f7b2291e5b200ac8c7c3b92560405160405180910390a45050565b82600a54146113325760405163d068bf5b60e01b8152600481018490526024016105b5565b600b61133e82826133b1565b50600f5467ffffffffffffffff1661135583610566565b106113b457600a5460009081526011602052604090205461137e906001600160a01b03166120f2565b61138782610566565b600a546000908152601160209081526040808320546001600160a01b0316835260129091529020556113e6565b6113bd82610566565b600a546000908152601160209081526040808320546001600160a01b0316835260129091529020555b827f7873807bf6ddc50401cd3d29bbe0decee23fd4d68d273f4b5eb83cded4d2f17283600b604051611419929190613471565b60405180910390a2505050565b6000806004546108a6919061350c565b600754156114795760405162461bcd60e51b815260206004820152601060248201526f105b1c9958591e481c995d99585b195960821b60448201526064016105b5565b8060008151811061148c5761148c613312565b60200260200101516007819055505050565b60006114a982611283565b61150d5760405162461bcd60e51b815260206004820152602f60248201527f4552433732315073693a206f70657261746f7220717565727920666f72206e6f60448201526e3732bc34b9ba32b73a103a37b5b2b760891b60648201526084016105b5565b600061151883610d4f565b9050806001600160a01b0316846001600160a01b031614806115535750836001600160a01b031661154884610658565b6001600160a01b0316145b8061126757506001600160a01b0380821660009081526006602090815260408083209388168352929052205460ff16611267565b60008061159383611b9e565b91509150846001600160a01b0316826001600160a01b03161461160d5760405162461bcd60e51b815260206004820152602c60248201527f4552433732315073693a207472616e73666572206f6620746f6b656e2074686160448201526b3a1034b9903737ba1037bbb760a11b60648201526084016105b5565b6001600160a01b0384166116735760405162461bcd60e51b815260206004820152602760248201527f4552433732315073693a207472616e7366657220746f20746865207a65726f206044820152666164647265737360c81b60648201526084016105b5565b611680858585600161211e565b61168b60008461129f565b600061169884600161351f565b600881901c600090815260208190526040902054909150600160ff1b60ff83161c161580156116c8575060045481105b1561171457600081815260036020908152604080832080546001600160a01b0319166001600160a01b038b16179055600884901c83529082905290208054600160ff1b60ff84161c1790555b600084815260036020526040902080546001600160a01b0319166001600160a01b03871617905581841461176557600884901c60009081526020819052604090208054600160ff1b60ff87161c1790555b83856001600160a01b0316876001600160a01b03167fddf252ad1be2c89b69c2b068fc378daa952ba7f163c4a11628f55a4df523b3ef60405160405180910390a45b505050505050565b61092f82600080846121aa565b80516000036117de5760405163fe936cb760e01b815260040160405180910390fd5b60a090910152565b606060006117f5610100612228565b905061182e6040518060400160405280600c81526020016b31b7b232a637b1b0ba34b7b760a11b8152508261224990919063ffffffff16565b825161184c90600281111561184557611845613532565b8290612262565b6040805180820190915260088152676c616e677561676560c01b6020820152611876908290612249565b604083015161188d90801561184557611845613532565b604080518082019091526006815265736f7572636560d01b60208201526118b5908290612249565b60608301516118c5908290612249565b60a08301515115611959576040805180820190915260048152636172677360e01b60208201526118f6908290612249565b6118ff8161229b565b60005b8360a001515181101561194f5761193f8460a00151828151811061192857611928613312565b60200260200101518361224990919063ffffffff16565b611948816132f9565b9050611902565b50611959816122bf565b60808301515115611a2b5760008360200151600281111561197c5761197c613532565b0361199a5760405163a80d31f760e01b815260040160405180910390fd5b60408051808201909152600f81527f736563726574734c6f636174696f6e000000000000000000000000000000000060208201526119d9908290612249565b6119f28360200151600281111561184557611845613532565b6040805180820190915260078152667365637265747360c81b6020820152611a1b908290612249565b6080830151611a2b9082906122dd565b60c08301515115611ac45760408051808201909152600981526862797465734172677360b81b6020820152611a61908290612249565b611a6a8161229b565b60005b8360c0015151811015611aba57611aaa8460c001518281518110611a9357611a93613312565b6020026020010151836122dd90919063ffffffff16565b611ab3816132f9565b9050611a6d565b50611ac4816122bf565b515192915050565b6000807f00000000000000000000000000000000000000000000000000000000000000006001600160a01b031663461d27628688600188886040518663ffffffff1660e01b8152600401611b24959493929190613548565b6020604051808303816000875af1158015611b43573d6000803e3d6000fd5b505050506040513d601f19601f82011682018060405250810190611b6791906132ca565b60405190915081907f1131472297a800fee664d1d89cfa8f7676ff07189ecc53f80bbb5f4969099db890600090a295945050505050565b600080611baa83611283565b611c0b5760405162461bcd60e51b815260206004820152602c60248201527f4552433732315073693a206f776e657220717565727920666f72206e6f6e657860448201526b34b9ba32b73a103a37b5b2b760a11b60648201526084016105b5565b611c14836122ea565b6000818152600360205260409020546001600160a01b031694909350915050565b6008546001600160a01b031633146110bb5760405162461bcd60e51b815260206004820152601660248201527f4f6e6c792063616c6c61626c65206279206f776e65720000000000000000000060448201526064016105b5565b60075415611cd25760405162461bcd60e51b815260206004820152601060248201526f105b1c9958591e481c995d99585b195960821b60448201526064016105b5565b60007f00000000000000000000000000000000000000000000000000000000000000006001600160a01b0316635d3b1d307f00000000000000000000000000000000000000000000000000000000000000007f0000000000000000000000000000000000000000000000000000000000000000600a6040516001600160e01b031960e086901b168152600481019390935267ffffffffffffffff909116602483015261ffff16604482015262030d4060648201526001608482015260a4016020604051808303816000875af1158015611daf573d6000803e3d6000fd5b505050506040513d601f19601f82011682018060405250810190611dd391906132ca565b90507f76421cb080d40e8a03ba462b500012451ba59bdebc46694dc458807c1d754b6281604051611e0691815260200190565b60405180910390a150565b611e1c848484611587565b611e2a8484846001856122f6565b61113c5760405162461bcd60e51b815260206004820152603560248201527f4552433732315073693a207472616e7366657220746f206e6f6e20455243373260448201527418a932b1b2b4bb32b91034b6b83632b6b2b73a32b960591b60648201526084016105b5565b6060601380546105d590613290565b60008184106040518060400160405280601e81526020017f696e707574206973206e6f742077697468696e2074686520646f6d61696e000081525090611efc5760405162461bcd60e51b81526004016105b59190612eb3565b506000611f088361247b565b60010160ff1690505b611f1e85856003846124e5565b9150828210610d5b57819450611f11565b606081600003611f565750506040805180820190915260018152600360fc1b602082015290565b8160005b8115611f805780611f6a816132f9565b9150611f799050600a836135a8565b9150611f5a565b60008167ffffffffffffffff811115611f9b57611f9b612d6f565b6040519080825280601f01601f191660200182016040528015611fc5576020820181803683370190505b5090505b841561126757611fda60018361350c565b9150611fe7600a866135bc565b611ff290603061351f565b60f81b81838151811061200757612007613312565b60200101907effffffffffffffffffffffffffffffffffffffffffffffffffffffffffffff1916908160001a905350612041600a866135a8565b9450611fc9565b336001600160a01b038216036120a05760405162461bcd60e51b815260206004820152601760248201527f43616e6e6f74207472616e7366657220746f2073656c6600000000000000000060448201526064016105b5565b600980546001600160a01b0319166001600160a01b03838116918217909255600854604051919216907fed8889f560326eb138920d842192f0eb3dd22b4f139c87a2c57538e05bae127890600090a350565b6007541561211357604051631eb49d6d60e11b815260040160405180910390fd5b6112808160016125de565b6001600160a01b0384166121a5577f0000000000000000000000000000000000000000000000000000000000000000612157828461351f565b11156121a55760405162461bcd60e51b815260206004820152601660248201527f457863656564206d6178696d756d20737570706c79210000000000000000000060448201526064016105b5565b61113c565b80516000036121cc576040516322ce3edd60e01b815260040160405180910390fd5b838360028111156121df576121df613532565b908160028111156121f2576121f2613532565b9052506040840182801561220857612208613532565b9081801561221857612218613532565b9052506060909301929092525050565b612230612d07565b805161223c90836125f8565b5060006020820152919050565b612256826003835161266f565b81516108139082612790565b815161226f9060c26127b8565b5061092f828260405160200161228791815260200190565b6040516020818303038152906040526122dd565b6122a6816004612821565b6001816020018181516122b9919061351f565b90525050565b6122ca816007612821565b6001816020018181516122b9919061350c565b612256826002835161266f565b60006105608183612838565b60006001600160a01b0385163b1561246e57506001835b612317848661351f565b81101561246857604051630a85bd0160e11b81526001600160a01b0387169063150b7a02906123509033908b90869089906004016135d0565b6020604051808303816000875af192505050801561238b575060408051601f3d908101601f191682019092526123889181019061360c565b60015b612436573d8080156123b9576040519150601f19603f3d011682016040523d82523d6000602084013e6123be565b606091505b50805160000361242e5760405162461bcd60e51b815260206004820152603560248201527f4552433732315073693a207472616e7366657220746f206e6f6e20455243373260448201527418a932b1b2b4bb32b91034b6b83632b6b2b73a32b960591b60648201526084016105b5565b805181602001fd5b82801561245357506001600160e01b03198116630a85bd0160e11b145b92505080612460816132f9565b91505061230d565b50612472565b5060015b95945050505050565b60006040518061012001604052806101008152602001613731610100913960f87e818283848586878898a8b8c8d8e8f929395969799a9b9d9e9faaeb6bedeeff6124c485612939565b02901c815181106124d7576124d7613312565b016020015160f81c92915050565b600060028204808303600180821b60001990810191841b0188841c8216898216865b898110156125b2576040805160208082018e905281830184905282518083038401815260609092019092528051910120826000600184168103612576575060408051602080820187905281830185905282518083038401815260609092019092528051910120871685186125a4565b5060408051602080820187905281830185905282518083038401815260609092019092528051910120861685185b909450925050600101612507565b50600289066000036125ce57941b909317935061126792505050565b931b909217935061126792505050565b61092f828260405180602001604052806000815250612980565b6040805180820190915260608152600060208201526126186020836135bc565b15612640576126286020836135bc565b61263390602061350c565b61263d908361351f565b91505b60208084018390526040518085526000815290818401018181101561266457600080fd5b604052509192915050565b60178167ffffffffffffffff161161269657825161113c9060e0600585901b1683176127b8565b60ff8167ffffffffffffffff16116126d85782516126bf906018611fe0600586901b16176127b8565b50825161113c9067ffffffffffffffff831660016129a5565b61ffff8167ffffffffffffffff161161271b578251612702906019611fe0600586901b16176127b8565b50825161113c9067ffffffffffffffff831660026129a5565b63ffffffff8167ffffffffffffffff161161276057825161274790601a611fe0600586901b16176127b8565b50825161113c9067ffffffffffffffff831660046129a5565b825161277790601b611fe0600586901b16176127b8565b50825161113c9067ffffffffffffffff831660086129a5565b6040805180820190915260608152600060208201526127b183838451612a2a565b9392505050565b60408051808201909152606081526000602082015282515160006127dd82600161351f565b9050846020015182106127fe576127fe856127f9836002613629565b612afb565b8451602083820101858153508051821115612817578181525b5093949350505050565b815161081390601f611fe0600585901b16176127b8565b600881901c60008181526020849052604081205490919060ff808516919082181c801561287a5761286881612b12565b60ff168203600884901b179350612930565b600083116128f05760405162461bcd60e51b815260206004820152603460248201527f4269744d6170733a205468652073657420626974206265666f7265207468652060448201527f696e64657820646f65736e27742065786973742e00000000000000000000000060648201526084016105b5565b50600019909101600081815260208690526040902054909190801561292b5761291881612b12565b60ff0360ff16600884901b179350612930565b61287a565b50505092915050565b600080821161294757600080fd5b50608081901c17604081901c17602081901c17601081901c17600881901c17600481901c17600281901c17600181811c909117811c0190565b600061298b60045490565b90506129978484612b5b565b611e2a6000858386866122f6565b60408051808201909152606081526000602082015283515160006129c9828561351f565b905085602001518111156129e6576129e6866127f9836002613629565b600060016129f686610100613724565b612a00919061350c565b90508651828101878319825116178152508051831115612a1e578281525b50959695505050505050565b6040805180820190915260608152600060208201528251821115612a4d57600080fd5b8351516000612a5c848361351f565b90508560200151811115612a7957612a79866127f9836002613629565b855180518382016020019160009180851115612a93578482525b505050602086015b60208610612ad35780518252612ab260208361351f565b9150612abf60208261351f565b9050612acc60208761350c565b9550612a9b565b51815160001960208890036101000a0190811690199190911617905250849150509392505050565b8151612b0783836125f8565b5061113c8382612790565b60006040518061012001604052806101008152602001613731610100913960f87e818283848586878898a8b8c8d8e8f929395969799a9b9d9e9faaeb6bedeeff6124c485612cef565b6000612b6660045490565b905060008211612bc65760405162461bcd60e51b815260206004820152602560248201527f4552433732315073693a207175616e74697479206d7573742062652067726561604482015264074657220360dc1b60648201526084016105b5565b6001600160a01b038316612c285760405162461bcd60e51b815260206004820152602360248201527f4552433732315073693a206d696e7420746f20746865207a65726f206164647260448201526265737360e81b60648201526084016105b5565b612c35600084838561211e565b8160046000828254612c47919061351f565b9091555050600081815260036020908152604080832080546001600160a01b0319166001600160a01b038816179055600884901c83529082905290208054600160ff1b60ff84161c179055805b612c9e838361351f565b81101561113c5760405181906001600160a01b038616906000907fddf252ad1be2c89b69c2b068fc378daa952ba7f163c4a11628f55a4df523b3ef908290a480612ce7816132f9565b915050612c94565b6000808211612cfd57600080fd5b5060008190031690565b6040518060400160405280612d2f604051806040016040528060608152602001600081525090565b8152602001600081525090565b6001600160e01b03198116811461128057600080fd5b600060208284031215612d6457600080fd5b81356127b181612d3c565b634e487b7160e01b600052604160045260246000fd5b604051601f8201601f1916810167ffffffffffffffff81118282101715612dae57612dae612d6f565b604052919050565b600067ffffffffffffffff831115612dd057612dd0612d6f565b612de3601f8401601f1916602001612d85565b9050828152838383011115612df757600080fd5b828260208301376000602084830101529392505050565b600082601f830112612e1f57600080fd5b6127b183833560208501612db6565b600060208284031215612e4057600080fd5b813567ffffffffffffffff811115612e5757600080fd5b61126784828501612e0e565b60005b83811015612e7e578181015183820152602001612e66565b50506000910152565b60008151808452612e9f816020860160208601612e63565b601f01601f19169290920160200192915050565b6020815260006127b16020830184612e87565b600060208284031215612ed857600080fd5b5035919050565b80356001600160a01b0381168114612ef657600080fd5b919050565b60008060408385031215612f0e57600080fd5b612f1783612edf565b946020939093013593505050565b600080600060608486031215612f3a57600080fd5b83359250602084013567ffffffffffffffff80821115612f5957600080fd5b612f6587838801612e0e565b93506040860135915080821115612f7b57600080fd5b50612f8886828701612e0e565b9150509250925092565b600067ffffffffffffffff821115612fac57612fac612d6f565b5060051b60200190565b60008060408385031215612fc957600080fd5b8235915060208084013567ffffffffffffffff811115612fe857600080fd5b8401601f81018613612ff957600080fd5b803561300c61300782612f92565b612d85565b81815260059190911b8201830190838101908883111561302b57600080fd5b928401925b8284101561304957833582529284019290840190613030565b80955050505050509250929050565b60008060006060848603121561306d57600080fd5b61307684612edf565b925061308460208501612edf565b9150604084013590509250925092565b600060208083850312156130a757600080fd5b823567ffffffffffffffff808211156130bf57600080fd5b818501915085601f8301126130d357600080fd5b81356130e161300782612f92565b81815260059190911b8301840190848101908883111561310057600080fd5b8585015b8381101561314d5780358581111561311c5760008081fd5b8601603f81018b1361312e5760008081fd5b61313f8b8983013560408401612db6565b845250918601918601613104565b5098975050505050505050565b60006020828403121561316c57600080fd5b6127b182612edf565b6020808252825182820181905260009190848201906040850190845b818110156131ad57835183529284019291840191600101613191565b50909695505050505050565b600080604083850312156131cc57600080fd5b6131d583612edf565b9150602083013580151581146131ea57600080fd5b809150509250929050565b6000806000806080858703121561320b57600080fd5b61321485612edf565b935061322260208601612edf565b925060408501359150606085013567ffffffffffffffff81111561324557600080fd5b61325187828801612e0e565b91505092959194509250565b6000806040838503121561327057600080fd5b61327983612edf565b915061328760208401612edf565b90509250929050565b600181811c908216806132a457607f821691505b6020821081036132c457634e487b7160e01b600052602260045260246000fd5b50919050565b6000602082840312156132dc57600080fd5b5051919050565b634e487b7160e01b600052601160045260246000fd5b60006001820161330b5761330b6132e3565b5060010190565b634e487b7160e01b600052603260045260246000fd5b6000845161333a818460208901612e63565b84519083019061334e818360208901612e63565b8451910190613361818360208801612e63565b0195945050505050565b601f82111561081357600081815260208120601f850160051c810160208610156133925750805b601f850160051c820191505b818110156117a75782815560010161339e565b815167ffffffffffffffff8111156133cb576133cb612d6f565b6133df816133d98454613290565b8461336b565b602080601f83116001811461341457600084156133fc5750858301515b600019600386901b1c1916600185901b1785556117a7565b600085815260208120601f198616915b8281101561344357888601518255948401946001909101908401613424565b50858210156134615787850151600019600388901b60f8161c191681555b5050505050600190811b01905550565b6040815260006134846040830185612e87565b6020838203818501526000855461349a81613290565b808552600182811680156134b557600181146134cf576134fd565b60ff1984168787015282151560051b8701860194506134fd565b896000528560002060005b848110156134f55781548982018901529083019087016134da565b880187019550505b50929998505050505050505050565b81810381811115610560576105606132e3565b80820180821115610560576105606132e3565b634e487b7160e01b600052602160045260246000fd5b67ffffffffffffffff8616815260a06020820152600061356b60a0830187612e87565b61ffff9590951660408301525063ffffffff92909216606083015260809091015292915050565b634e487b7160e01b600052601260045260246000fd5b6000826135b7576135b7613592565b500490565b6000826135cb576135cb613592565b500690565b60006001600160a01b038087168352808616602084015250836040830152608060608301526136026080830184612e87565b9695505050505050565b60006020828403121561361e57600080fd5b81516127b181612d3c565b8082028115828204841417610560576105606132e3565b600181815b8085111561367b578160001904821115613661576136616132e3565b8085161561366e57918102915b93841c9390800290613645565b509250929050565b60008261369257506001610560565b8161369f57506000610560565b81600181146136b557600281146136bf576136db565b6001915050610560565b60ff8411156136d0576136d06132e3565b50506001821b610560565b5060208310610133831016604e8410600b84101617156136fe575081810a610560565b6137088383613640565b806000190482111561371c5761371c6132e3565b029392505050565b60006127b1838361368356fe0001020903110a19042112290b311a3905412245134d2a550c5d32651b6d3a7506264262237d468514804e8d2b95569d0d495ea533a966b11c886eb93bc176c9071727374353637324837e9b47af86c7155181ad4fd18ed32c9096db57d59ee30e2e4a6a5f92a6be3498aae067ddb2eb1d5989b56fd7baf33ca0c2ee77e5caf7ff0810182028303840444c545c646c7425617c847f8c949c48a4a8b087b8c0c816365272829aaec650acd0d28fdad4e22d6991bd97dfdcea58b4d6f29fede4f6fe0f1f2f3f4b5b6b607b8b93a3a7b7bf357199c5abcfd9e168bcdee9b3f1ecf5fd1e3e5a7a8aa2b670c4ced8bbe8f0f4fc3d79a1c3cde7effb78cce6facbf9f8a26469706673582212205f7db5476229e0f8257affdabe72e59f07ca51b5b4d3fb838947b47a9dd944be64736f6c63430008130033636f6e7374206164647265737343726561746f72203d20617267735b305d636f6e737420616464726573734275796572203d20617267735b315d636f6e737420636865636b4e465450757263686173656452657175657374203d2061776169742046756e6374696f6e732e6d616b654874747052657175657374287b75726c3a206068747470733a2f2f6d657461646174612d73746f726167652e617a75726577656273697465732e6e65742f6170692f76312f736f6369616c732f63726561746f722f247b6164647265737343726561746f727d2f62757965722f247b6164647265737342757965727d607d2969662028636865636b4e4654507572636861736564526571756573742e6572726f7229207b636f6e736f6c652e6572726f7228636865636b4e4654507572636861736564526571756573742e6572726f72297468726f77204572726f72282752657175657374206661696c656427297d636f6e7374207b2064617461207d203d20636865636b4e465450757263686173656452657175657374636f6e7374206e6674426f75676874203d20646174612e6e756d42757972657475726e2046756e6374696f6e732e656e636f646555696e74323536286e6674426f7567687429",
  "linkReferences": {},
  "deployedLinkReferences": {}
}